{
  "address": "0xE215f65D9160A9cf90a2352b3c9ed65a085b062d",
  "abi": [
    {
      "inputs": [
        {
          "internalType": "uint256",
          "name": "minimumWager",
          "type": "uint256"
        }
      ],
      "stateMutability": "nonpayable",
      "type": "constructor"
    },
    {
      "inputs": [
        {
          "internalType": "uint256",
          "name": "minimum",
          "type": "uint256"
        },
        {
          "internalType": "uint256",
          "name": "sent",
          "type": "uint256"
        }
      ],
      "name": "CoinFlip__NotEnoughWagered",
      "type": "error"
    },
    {
      "inputs": [],
      "name": "CoinFlip__TransferFailed",
      "type": "error"
    },
    {
      "anonymous": false,
      "inputs": [
        {
          "indexed": false,
          "internalType": "uint256",
          "name": "entrantsGuess",
          "type": "uint256"
        },
        {
          "indexed": false,
          "internalType": "uint256",
          "name": "result",
          "type": "uint256"
        }
      ],
      "name": "CoinFlipResult",
      "type": "event"
    },
    {
      "anonymous": false,
      "inputs": [
        {
          "indexed": true,
          "internalType": "address",
          "name": "entrant",
          "type": "address"
        },
        {
          "indexed": true,
          "internalType": "uint256",
          "name": "entrantsWager",
          "type": "uint256"
        },
        {
          "indexed": true,
          "internalType": "uint256",
          "name": "entrantsGuess",
          "type": "uint256"
        }
      ],
      "name": "WagerEntered",
      "type": "event"
    },
    {
      "inputs": [
        {
          "internalType": "uint256",
          "name": "entrantsGuess",
          "type": "uint256"
        },
        {
          "internalType": "uint256",
          "name": "entrantsWager",
          "type": "uint256"
        },
        {
          "internalType": "address",
          "name": "entrant",
          "type": "address"
        }
      ],
      "name": "enterWager",
      "outputs": [],
      "stateMutability": "payable",
      "type": "function"
    },
    {
      "inputs": [],
      "name": "fundContract",
      "outputs": [],
      "stateMutability": "payable",
      "type": "function"
    },
    {
      "inputs": [],
      "name": "getCoinFlipResult",
      "outputs": [
        {
          "internalType": "uint256",
          "name": "",
          "type": "uint256"
        }
      ],
      "stateMutability": "view",
      "type": "function"
    },
    {
      "inputs": [],
      "name": "getLastTimeStamp",
      "outputs": [
        {
          "internalType": "uint256",
          "name": "",
          "type": "uint256"
        }
      ],
      "stateMutability": "view",
      "type": "function"
    },
    {
      "inputs": [],
      "name": "getMinimumWager",
      "outputs": [
        {
          "internalType": "uint256",
          "name": "",
          "type": "uint256"
        }
      ],
      "stateMutability": "view",
      "type": "function"
    },
    {
      "inputs": [],
      "name": "getOwner",
      "outputs": [
        {
          "internalType": "address",
          "name": "",
          "type": "address"
        }
      ],
      "stateMutability": "view",
      "type": "function"
    }
  ],
  "transactionHash": "0xfc333d86ac34ec5be828f4da35a7217cc17e39e8fe8c623a52c16b092446ed11",
  "args": [
    "100000000000000000"
  ],
  "numDeployments": 2,
  "solcInputHash": "004115605a3d9139ae24283520b4ac7e",
  "bytecode": "0x60c060405234801561001057600080fd5b50604051610704380380610704833981810160405281019061003291906100b6565b8060a081815250503373ffffffffffffffffffffffffffffffffffffffff1660808173ffffffffffffffffffffffffffffffffffffffff168152505042600081905550506100e3565b600080fd5b6000819050919050565b61009381610080565b811461009e57600080fd5b50565b6000815190506100b08161008a565b92915050565b6000602082840312156100cc576100cb61007b565b5b60006100da848285016100a1565b91505092915050565b60805160a0516105ee61011660003960008181610138015281816101600152610314015260006102e101526105ee6000f3fe6080604052600436106100555760003560e01c8063290857051461005a57806357542dae14610085578063893d20e8146100a1578063bd097e21146100cc578063c1c244e8146100d6578063f48409e914610101575b600080fd5b34801561006657600080fd5b5061006f61012c565b60405161007c9190610351565b60405180910390f35b61009f600480360381019061009a91906103fb565b610136565b005b3480156100ad57600080fd5b506100b66102dd565b6040516100c3919061045d565b60405180910390f35b6100d4610305565b005b3480156100e257600080fd5b506100eb610307565b6040516100f89190610351565b60405180910390f35b34801561010d57600080fd5b50610116610310565b6040516101239190610351565b60405180910390f35b6000600154905090565b7f00000000000000000000000000000000000000000000000000000000000000003410156101bd577f0000000000000000000000000000000000000000000000000000000000000000346040517fa08b4f670000000000000000000000000000000000000000000000000000000081526004016101b4929190610478565b60405180910390fd5b82343373ffffffffffffffffffffffffffffffffffffffff167ff755ecaf3a1f0184d84dd3c4098aa02d8e54070ee3cc691e1c7fa63ca28e2ed260405160405180910390a442600081905550600260005461021891906104d0565b60018190555060015483036102d85760008173ffffffffffffffffffffffffffffffffffffffff1660028461024d9190610530565b604051610259906105a3565b60006040518083038185875af1925050503d8060008114610296576040519150601f19603f3d011682016040523d82523d6000602084013e61029b565b606091505b50509050806102d6576040517f3d85c9d500000000000000000000000000000000000000000000000000000000815260040160405180910390fd5b505b505050565b60007f0000000000000000000000000000000000000000000000000000000000000000905090565b565b60008054905090565b60007f0000000000000000000000000000000000000000000000000000000000000000905090565b6000819050919050565b61034b81610338565b82525050565b60006020820190506103666000830184610342565b92915050565b600080fd5b61037a81610338565b811461038557600080fd5b50565b60008135905061039781610371565b92915050565b600073ffffffffffffffffffffffffffffffffffffffff82169050919050565b60006103c88261039d565b9050919050565b6103d8816103bd565b81146103e357600080fd5b50565b6000813590506103f5816103cf565b92915050565b6000806000606084860312156104145761041361036c565b5b600061042286828701610388565b935050602061043386828701610388565b9250506040610444868287016103e6565b9150509250925092565b610457816103bd565b82525050565b6000602082019050610472600083018461044e565b92915050565b600060408201905061048d6000830185610342565b61049a6020830184610342565b9392505050565b7f4e487b7100000000000000000000000000000000000000000000000000000000600052601260045260246000fd5b60006104db82610338565b91506104e683610338565b9250826104f6576104f56104a1565b5b828206905092915050565b7f4e487b7100000000000000000000000000000000000000000000000000000000600052601160045260246000fd5b600061053b82610338565b915061054683610338565b925082820261055481610338565b9150828204841483151761056b5761056a610501565b5b5092915050565b600081905092915050565b50565b600061058d600083610572565b91506105988261057d565b600082019050919050565b60006105ae82610580565b915081905091905056fea26469706673582212209a0685c83f66104d87a4a2e2cf6b6eeb4f78faa7fb4a3ca3eb7b3157b64a7bbe64736f6c63430008130033",
  "devdoc": {
    "kind": "dev",
    "methods": {},
    "version": 1
  },
  "userdoc": {
    "errors": {
      "CoinFlip__NotEnoughWagered(uint256,uint256)": [
        {
          "notice": "Custom Errors ///"
        }
      ]
    },
    "kind": "user",
    "methods": {
      "fundContract()": {
        "notice": "Main Functions ///"
      },
      "getOwner()": {
        "notice": "Getter Functions///"
      }
    },
    "version": 1
  },
  "storageLayout": {
    "storage": [
      {
        "astId": 16,
        "contract": "contracts/CoinFlip.sol:CoinFlip",
        "label": "lastTimeStamp",
        "offset": 0,
        "slot": "0",
        "type": "t_uint256"
      },
      {
        "astId": 18,
        "contract": "contracts/CoinFlip.sol:CoinFlip",
        "label": "coinFlipResult",
        "offset": 0,
        "slot": "1",
        "type": "t_uint256"
      }
    ],
    "types": {
      "t_uint256": {
        "encoding": "inplace",
        "label": "uint256",
        "numberOfBytes": "32"
      }
    }
  }
}