{
  "address": "0x74A84b97B08BB9D99e01962a668bA4A206FfFf4E",
  "abi": [
    {
      "inputs": [
        {
          "internalType": "uint256",
          "name": "minimumWager",
          "type": "uint256"
        }
      ],
      "stateMutability": "nonpayable",
      "type": "constructor"
    },
    {
      "inputs": [
        {
          "internalType": "uint256",
          "name": "minimum",
          "type": "uint256"
        },
        {
          "internalType": "uint256",
          "name": "sent",
          "type": "uint256"
        }
      ],
      "name": "CoinFlip__NotEnoughWagered",
      "type": "error"
    },
    {
      "inputs": [],
      "name": "CoinFlip__TransferFailed",
      "type": "error"
    },
    {
      "anonymous": false,
      "inputs": [
        {
          "indexed": false,
          "internalType": "uint256",
          "name": "entrantsGuess",
          "type": "uint256"
        },
        {
          "indexed": false,
          "internalType": "uint256",
          "name": "result",
          "type": "uint256"
        }
      ],
      "name": "CoinFlipResult",
      "type": "event"
    },
    {
      "anonymous": false,
      "inputs": [
        {
          "indexed": true,
          "internalType": "address",
          "name": "entrant",
          "type": "address"
        },
        {
          "indexed": true,
          "internalType": "uint256",
          "name": "entrantsWager",
          "type": "uint256"
        },
        {
          "indexed": true,
          "internalType": "uint256",
          "name": "entrantsGuess",
          "type": "uint256"
        }
      ],
      "name": "WagerEntered",
      "type": "event"
    },
    {
      "inputs": [
        {
          "internalType": "uint256",
          "name": "entrantsGuess",
          "type": "uint256"
        }
      ],
      "name": "enterWager",
      "outputs": [],
      "stateMutability": "payable",
      "type": "function"
    },
    {
      "inputs": [],
      "name": "fund",
      "outputs": [],
      "stateMutability": "payable",
      "type": "function"
    },
    {
      "inputs": [],
      "name": "getCoinFlipResult",
      "outputs": [
        {
          "internalType": "uint256",
          "name": "",
          "type": "uint256"
        }
      ],
      "stateMutability": "view",
      "type": "function"
    },
    {
      "inputs": [],
      "name": "getLastTimeStamp",
      "outputs": [
        {
          "internalType": "uint256",
          "name": "",
          "type": "uint256"
        }
      ],
      "stateMutability": "view",
      "type": "function"
    },
    {
      "inputs": [],
      "name": "getMinimumWager",
      "outputs": [
        {
          "internalType": "uint256",
          "name": "",
          "type": "uint256"
        }
      ],
      "stateMutability": "view",
      "type": "function"
    },
    {
      "inputs": [],
      "name": "getOwner",
      "outputs": [
        {
          "internalType": "address",
          "name": "",
          "type": "address"
        }
      ],
      "stateMutability": "view",
      "type": "function"
    }
  ],
  "transactionHash": "0x34c90259a359a46d25438e233470c3618943d9e69cfda61451ac88a87384f0ab",
  "args": [
    "100000000000000000"
  ],
  "numDeployments": 3,
  "solcInputHash": "82e54df417c1107ac6bcaff6d4da0847",
  "bytecode": "0x60c060405234801561001057600080fd5b506040516106b03803806106b0833981810160405281019061003291906100b6565b8060a081815250503373ffffffffffffffffffffffffffffffffffffffff1660808173ffffffffffffffffffffffffffffffffffffffff168152505042600081905550506100e3565b600080fd5b6000819050919050565b61009381610080565b811461009e57600080fd5b50565b6000815190506100b08161008a565b92915050565b6000602082840312156100cc576100cb61007b565b5b60006100da848285016100a1565b91505092915050565b60805160a05161059a61011660003960008181610138015281816101600152610312015260006102df015261059a6000f3fe6080604052600436106100555760003560e01c8063290857051461005a578063860a069414610085578063893d20e8146100a1578063b60d4288146100cc578063c1c244e8146100d6578063f48409e914610101575b600080fd5b34801561006657600080fd5b5061006f61012c565b60405161007c919061034f565b60405180910390f35b61009f600480360381019061009a919061039b565b610136565b005b3480156100ad57600080fd5b506100b66102db565b6040516100c39190610409565b60405180910390f35b6100d4610303565b005b3480156100e257600080fd5b506100eb610305565b6040516100f8919061034f565b60405180910390f35b34801561010d57600080fd5b5061011661030e565b604051610123919061034f565b60405180910390f35b6000600154905090565b7f00000000000000000000000000000000000000000000000000000000000000003410156101bd577f0000000000000000000000000000000000000000000000000000000000000000346040517fa08b4f670000000000000000000000000000000000000000000000000000000081526004016101b4929190610424565b60405180910390fd5b80343373ffffffffffffffffffffffffffffffffffffffff167ff755ecaf3a1f0184d84dd3c4098aa02d8e54070ee3cc691e1c7fa63ca28e2ed260405160405180910390a4426000819055506002600054610218919061047c565b60018190555060015481036102d85760003373ffffffffffffffffffffffffffffffffffffffff1660023461024d91906104dc565b6040516102599061054f565b60006040518083038185875af1925050503d8060008114610296576040519150601f19603f3d011682016040523d82523d6000602084013e61029b565b606091505b50509050806102d6576040517f3d85c9d500000000000000000000000000000000000000000000000000000000815260040160405180910390fd5b505b50565b60007f0000000000000000000000000000000000000000000000000000000000000000905090565b565b60008054905090565b60007f0000000000000000000000000000000000000000000000000000000000000000905090565b6000819050919050565b61034981610336565b82525050565b60006020820190506103646000830184610340565b92915050565b600080fd5b61037881610336565b811461038357600080fd5b50565b6000813590506103958161036f565b92915050565b6000602082840312156103b1576103b061036a565b5b60006103bf84828501610386565b91505092915050565b600073ffffffffffffffffffffffffffffffffffffffff82169050919050565b60006103f3826103c8565b9050919050565b610403816103e8565b82525050565b600060208201905061041e60008301846103fa565b92915050565b60006040820190506104396000830185610340565b6104466020830184610340565b9392505050565b7f4e487b7100000000000000000000000000000000000000000000000000000000600052601260045260246000fd5b600061048782610336565b915061049283610336565b9250826104a2576104a161044d565b5b828206905092915050565b7f4e487b7100000000000000000000000000000000000000000000000000000000600052601160045260246000fd5b60006104e782610336565b91506104f283610336565b925082820261050081610336565b91508282048414831517610517576105166104ad565b5b5092915050565b600081905092915050565b50565b600061053960008361051e565b915061054482610529565b600082019050919050565b600061055a8261052c565b915081905091905056fea2646970667358221220213cf781cbd967a458c38598128b24441396c28248ef180692840df412e2948664736f6c63430008130033",
  "devdoc": {
    "kind": "dev",
    "methods": {},
    "version": 1
  },
  "userdoc": {
    "errors": {
      "CoinFlip__NotEnoughWagered(uint256,uint256)": [
        {
          "notice": "Custom Errors ///"
        }
      ]
    },
    "kind": "user",
    "methods": {
      "fund()": {
        "notice": "Main Functions ///"
      },
      "getOwner()": {
        "notice": "Getter Functions///"
      }
    },
    "version": 1
  },
  "storageLayout": {
    "storage": [
      {
        "astId": 16,
        "contract": "contracts/CoinFlip.sol:CoinFlip",
        "label": "lastTimeStamp",
        "offset": 0,
        "slot": "0",
        "type": "t_uint256"
      },
      {
        "astId": 18,
        "contract": "contracts/CoinFlip.sol:CoinFlip",
        "label": "coinFlipResult",
        "offset": 0,
        "slot": "1",
        "type": "t_uint256"
      }
    ],
    "types": {
      "t_uint256": {
        "encoding": "inplace",
        "label": "uint256",
        "numberOfBytes": "32"
      }
    }
  }
}